:10000000FA2B00308A000408840A82070034003486
:100010000034003400340034083408340834083420
:100020000834003400344034003400343E34413469
:10003000413441343E34003442347F34403400345F
:1000400042346134513449344634213441344534E6
:100050004B3431341834143412347F341034273490
:1000600045344534453439343C344A3449344934D0
:1000700030340134713409340534033436344934AE
:1000800049344934363406344934493429341E3429
:100090003E3441344134413422340034063409348E
:1000A0000934063400340034003400340034083499
:1000B0000834083408340834003400344034003440
:1000C00000343E344134413441343E34003442340F
:1000D0007F3440340034423461345134493446343E
:1000E0002134413445344B3431341834143412340F
:1000F0007F341034273445344534453439343C3466
:100100004A344934493430340134713409340534C3
:1001100003343634493449344934363406344934A6
:10012000493429341E343E3441344134413422347C
:0A01300000340634093409340634A3
:10013C00783483128512A228A3280000831205129A
:10014C00080083120516AA28AB2800008312851616
:10015C000800000083120516B328B428000083128F
:10016C000512000008008312A3009F2083123C0894
:10017C003B2100303B21831223083B21A7200800A0
:10018C008312A300A201231CCF282008A100210860
:10019C00A2070310A00D0310A30C2308031DC928EC
:1001AC00220808008316051183120511C730A00020
:1001BC00A00BDE28E1288316051521308312A00040
:1001CC00A00BE628C7308312A000A00BEB28EE286A
:1001DC0008008312A401A501201CFA282208A407F8
:1001EC000318A50A2308A50701300310A20DA30DBF
:1001FC00FF3E031DFB2801300310A10CA00CFF3E99
:10020C00031D022920082104031DF2282508A10042
:10021C002408A00008008312A40020302406031D2B
:10022C001929BB011B29BB01BB0AAE30B9208D308B
:10023C00B9201430B9202030B9200030B920A130B9
:10024C00B920C830B920DA30B92020308312240606
:10025C00031D3229223033291230B9208130B920C4
:10026C00FF30B920AF30B92008008312A100A201E1
:10027C000830220203185F292108A0002203FF3A4C
:10028C00073E013E4B290310A00CFF3E031D4929DC
:10029C00201C532983128516552983128512AF20F1
:1002AC0001308312A0002008A20708302202031C90
:1002BC00422983168516AF20632964290000831612
:1002CC008512080083122808290403199629AD0108
:1002DC00AD0AA91B7D2901300310A80DA90DFF3E05
:1002EC00031D72290130AC002C08AD076F292908B9
:1002FC002B02031D832928082A02031C8B2928089A
:10030C00AA022908031CAB03AB0201300310A90C91
:10031C00A80CFF3E031D8C290130AD02031D7D2965
:10032C002B08A9002A08A80008008312A60108308F
:10033C002602031808002130B9200030B9207F3084
:10034C00B9202230B92083122608B920831226083E
:10035C00013EB9209F2083123C083B2140303B21B9
:10036C008312A501803025020318C72900303B21D8
:10037C0001308312A4002408A50780302502031C39
:10038C00BC29A72001308312A4002408A6079D29AC
:10039C008312A201A301083023020318FD2983163E
:1003AC00051183120511DA2983160515DD29DE29BD
:1003BC00DF298312051DEF290130A000230AE8294B
:1003CC000310A00DFF3E031DE6292008A100210803
:1003DC00A2071A30A000A00BF129000001308312F3
:1003EC00A0002008A30708302302031CD52983167C
:1003FC0005158312220808008312A100A2010830FF
:10040C0022020318392A0130A000220A0F2A0310F5
:10041C00A00DFF3E031D0D2A200821050319242AD7
:10042C0083160511831205111B2A831605151A3024
:10043C008312A000A00B202A0000302A831605117D
:10044C00831205111A30A000A00B2A2A0000831673
:10045C000515302A01308312A0002008A2070830AD
:10046C002202031C092A8316051508008312A50114
:10047C00A601200821040319742AA701A70AA11BAD
:10048C00532A01300310A00DA10DFF3E031D482A75
:10049C000130A4002408A707452A01300310A50D3C
:1004AC00A60DFF3E031D542A21082302031D602ABA
:1004BC0020082202031C692A2008A2022108031C1E
:1004CC00A303A302251401300310A10CA00CFF3EC2
:1004DC00031D6A2A0130A702031D532A2608A10016
:1004EC002508A00008008312A8002030B920013094
:1004FC00B9202130B92083122508B9208312250890
:10050C000E3EB9202230B92083122408B920831260
:10051C002408033EB9209F2083123C083B21403025
:10052C003B218312AE0105302E020318FA2A053046
:10053C00A6002608A0002808C62083122E07013E1C
:10054C0084000120A7002708AF00A901AA01AB0174
:10055C00AC012F1FB52AF030A6002608AC07AF1E41
:10056C00BB2A0F30A6002608AC072F1EC12AF0307C
:10057C00A6002608AB07AF1DC72A0F30A600260819
:10058C00AB072F1DCD2AF030A6002608AA07AF1CFA
:10059C00D32A0F30A6002608AA072F1CD92AF03020
:1005AC00A6002608A907AD0103302D020318F22A74
:1005BC0029083B2183122A083B2183122B083B215B
:1005CC0083122C083B2101308312A6002608AD07AC
:1005DC0003302D02031CDE2A0130A6002608AE07CC
:1005EC0005302E02031C9D2AA7202030B920003094
:1005FC00B92008000730831299000D30831685004E
:10060C008312051685160630B2001330B100AD30DA
:10061C00B000B00B0F2BB10B0F2BB20B0F2B162BFB
:10062C00203011219B2183123B08B0003008A4001C
:10063C005D30B1003108A5000E30792283123B08E1
:10064C00B0003008A4006E30B1003108A5000D30A8
:10065C00792283123B08B0003008A4003130B1007D
:10066C003108A50002307922D820CC300222BE30CD
:10067C000222CE218312B0003008B300CE218312A7
:10068C00B0003008B400D820D820CC30022244303E
:10069C00022283123408B000B1013008B100B0015D
:1006AC0030083304B9003108BA0008303A0200307F
:1006BC0003193902031C6A2BB909BA09B90A0319BF
:1006CC00BA0AB501B50A6B2BB5010F303905A0007C
:1006DC0000303A05A1000A30A2000030A300EF2040
:1006EC0083122008B0002108B10004300310B10CB3
:1006FC00B00CFF3E031D7C2B3008B2003208B80052
:10070C00390E0F39B9003A0EF039B9043A0E0F39D7
:10071C00BA000A30A8000030A9000A30A00000304E
:10072C00A1003A08A3003908A2003C228312210838
:10073C00AB002008AA00682183122808B0003008FA
:10074C00B6000A30A8000030A9003A08AB003908FE
:10075C00AA00682183122808B0003008B7003508B9
:10076C000319BF2B3B08B0003008A400A5010130D1
:10077C00C62B83123B08B0003008A400A501003042
:10078C00792283123B08B0003008A4001130B1006C
:10079C003108A5003608033E792283123B08B000CD
:1007AC003008A4002330B1003108A5003708033EFF
:1007BC00792283123B08B0003008A4003F30B1000E
:1007CC003108A5003808033E792206308312B200A6
:1007DC001330B100AD30B000B00BF22BB10BF22BDB
:1007EC00B20BF22BF92B3A2B9E20BC00BB018301E0
:0207FC00002BD0
:02400E00D431AB
:00000001FF
