:10000000FB2B00308A000408840A82070034003485
:100010000034003400340034083408340834083420
:100020000834003460346034003400343E344134E9
:10003000413441343E34003442347F34403400345F
:1000400042346134513449344634213441344534E6
:100050004B3431341834143412347F341034273490
:1000600045344534453439343C344A3449344934D0
:1000700030340134713409340534033436344934AE
:1000800049344934363406344934493429341E3429
:100090003E3441344134413422340034063409348E
:1000A0000934063400340034003400340034083499
:1000B00008340834083408340034603460340034C0
:1000C00000343E344134413441343E34003442340F
:1000D0007F3440340034423461345134493446343E
:1000E0002134413445344B3431341834143412340F
:1000F0007F341034273445344534453439343C3466
:100100004A344934493430340134713409340534C3
:1001100003343634493449344934363406344934A6
:10012000493429341E343E3441344134413422347C
:0A01300000340634093409340634A3
:10018800783483128512C828C92800008312051202
:10019800080083120516D028D1280000831285167E
:1001A8000800000083120516D928DA2800008312F7
:1001B8000512000008008312A300C5208312390825
:1001C800502100305021831223085021CD200800EF
:1001D8008312A300A201231CF5282008A1002108EE
:1001E800A2070310A00D0310A30C2308031DEF287A
:1001F800220808008316051183120511C730A000D4
:10020800A00B042907298316051521308312A000A5
:10021800A00B0C29C7308312A000A00B11291429A8
:100228000800AE30DF208D30DF201430DF20203092
:10023800DF200030DF20A130DF20C830DF20DA30B7
:10024800DF202230DF208130DF20FF30DF20AF3099
:10025800DF2008008312A401A501201C39292208E7
:10026800A4070318A50A2308A50701300310A20D47
:10027800A30DFF3E031D3A2901300310A10CA00C69
:10028800FF3E031D412920082104031D31292508AB
:10029800A1002408A00008008312A100A2010830D0
:1002A8002202031874292108A0002203FF3A073EFE
:1002B800013E60290310A00CFF3E031D5E29201C8F
:1002C8006829831285166A2983128512D520013080
:1002D8008312A0002008A20708302202031C572915
:1002E80083168516D520782979290000831685126A
:1002F80008008312280829040319AB29AD01AD0AA7
:10030800A91B922901300310A80DA90DFF3E031D5A
:1003180087290130AC002C08AD07842929082B0255
:10032800031D982928082A02031CA0292808AA02C4
:100338002908031CAB03AB0201300310A90CA80C5D
:10034800FF3E031DA1290130AD02031D92292B0890
:10035800A9002A08A80008008312A601083026026E
:10036800031808002130DF200030DF207F30DF2035
:100378002230DF2083122608DF2083122608013E60
:10038800DF20C520831239085021403050218312C4
:10039800A501803025020318DC29003050210130E6
:1003A8008312A4002408A50780302502031CD12944
:1003B800CD2001308312A4002408A607B229831295
:1003C800A201A301083023020318122A831605117B
:1003D80083120511EF2983160515F229F329F4294B
:1003E8008312051D042A0130A000230AFD290310E9
:1003F800A00DFF3E031DFB292008A1002108A2072C
:100408001A30A000A00B062A000001308312A000B9
:100418002008A30708302302031CEA2983160515C0
:100428008312220808008312A100A20108302202C8
:1004380003184E2A0130A000220A242A0310A00D16
:10044800FF3E031D222A200821050319392A831695
:10045800051183120511302A831605151A308312E7
:10046800A000A00B352A0000452A83160511831227
:1004780005111A30A000A00B3F2A000083160515AD
:10048800452A01308312A0002008A2070830220262
:10049800031C1E2A8316051508008312A501A60150
:1004A800200821040319892AA701A70AA11B682A81
:1004B80001300310A00DA10DFF3E031D5D2A013080
:1004C800A4002408A7075A2A01300310A50DA60D79
:1004D800FF3E031D692A21082302031D752A2008EF
:1004E8002202031C7E2A2008A2022108031CA3035F
:1004F800A302251401300310A10CA00CFF3E031D1C
:100508007F2A0130A702031D682A2608A1002508B2
:10051800A00008008312A8002030DF200130DF206F
:100528002130DF200D308312A6002608A000250800
:10053800EC20DF200D308312A6002608A000250835
:10054800EC20093EDF202230DF2083122408DF2040
:1005580083122408013EDF20C52083123908502168
:10056800403050218312AB0105302B0203180A2BAF
:100578000530A6002608A0002808EC2083122B07C7
:10058800013E84000120A7002708AC00AA01A901A8
:100598002C1FD22AC030A6002608AA07AC1ED82ACB
:1005A8003030A6002608AA072C1EDE2A0C30A6002A
:1005B8002608AA07AC1DE42A0330A6002608AA07C5
:1005C8002C1DEA2AC030A6002608A907AC1CF02A70
:1005D8003030A6002608A9072C1CF62A0C30A600E5
:1005E8002608A9072908502183122A0850218312B6
:1005F8002908502183122A08502101308312A600AD
:100608002608AB0705302B02031CBC2ACD2020305E
:10061800DF200030DF2008000730831299000D30FA
:10062800831685008312051685160630B000133030
:10063800AF00AD30AE00AE0B1F2BAF0B1F2BB00BB6
:100648001F2B262B1521B0218312A401A40A0730E1
:10065800AE002E08A5000E308E228312A401A40A33
:100668000830AE002E08A5000D308E228312A4019A
:10067800A40A0430AE002E08A50002308E22FE2007
:10068800CC301722BE301722E3218312AE002E0889
:10069800B100E3218312AE002E08B200FE20FE2036
:1006A800CC3017224430172283123208AE00AF0133
:1006B8002E08AF00AE012E083104B7002F08B8008D
:1006C80008303802003003193702031C732BB709AE
:1006D800B809B70A0319B80AB301B30A742BB301EE
:1006E8000F303705A00000303805A1000A30A200FD
:1006F8000030A3002E2183122008AE002108AF008D
:1007080004300310AF0CAE0CFF3E031D852B2E08E2
:10071800B0003008B600370E0F39B700380EF03980
:10072800B704380E0F39B8000A30A8000030A90005
:100738000A30A0000030A1003808A3003708A20042
:10074800512283122108AB002008AA007D218312C0
:100758002808AE002E08B4000A30A8000030A9000E
:100768003808AB003708AA007D2183122808AE009C
:100778002E08B50033080319C72BA401A40AA50144
:10078800A50A0130CD2B8312A401A40AA501A50A4C
:1007980000308E228312A401A40A0230AE002E0873
:1007A800A5003408033E8E228312A401A40A033054
:1007B800AE002E08A5003508033E8E228312A40140
:1007C800A40A0530AE002E08A5003608033E8E2286
:1007D80006308312B0001330AF00AD30AE00AE0B60
:1007E800F32BAF0BF32BB00BF32BFA2B432BC420BB
:0607F800B9008301102B83
:02400E009431EB
:00000001FF
